:020000040800F2
:1000000000500020FD2500083D2300084323000880
:10001000492300084F230008552300080000000072
:100020000000000000000000000000005B2300084A
:100030006723000800000000732300087F230008E6
:1000400045260008452600084526000845260008E4
:1000500045260008452600084526000845260008D4
:1000600045260008452600084526000845260008C4
:1000700045260008452600084526000845260008B4
:1000800045260008452600084526000845260008A4
:100090004526000845260008452600084526000894
:1000A0004526000845260008452600084526000884
:1000B0004526000845260008452600084526000874
:1000C0004526000845260008452600084526000864
:1000D000452600088D230008A123000845260008B6
:1000E00045260008452600084526000800000000B7
:1000F0000000000000000000000000000000000000
:0C01000000000000000000005FF808F1A3
:10010C0010B5054C237833B9044B13B10448AFF345
:10011C0000800123237010BDC400002000000000EB
:10012C007C5C000808B5034B1BB103490348AFF3D3
:10013C00008008BD00000000C80000207C5C0008A6
:10014C0010F8012B11F8013B012A28BF9A42F7D075
:10015C00D01A7047034613F8012B002AFBD1181A4A
:10016C000138704780B588B000AF07F1100300224A
:10017C001A605A609A60DA60354B9B69344A43F0D6
:10018C0010039361324B9B6903F01003FB60FB6817
:10019C002F4B9B692E4A43F0200393612C4B9B6998
:1001AC0003F02003BB60BB68294B9B69284A43F0D2
:1001BC0004039361264B9B6903F004037B607B680B
:1001CC00234B9B69224A43F008039361204B9B69A4
:1001DC0003F008033B603B6800224FF460411D486C
:1001EC0002F00DFE00224BF221011B4802F007FE2B
:1001FC004FF460433B6101237B610023BB6102230D
:10020C00FB6107F110031946124802F05DFC4BF23A
:10021C0021033B6101237B610023BB610223FB6152
:10022C0007F1100319460C4802F04EFC4FF4194329
:10023C003B6100237B610123BB6107F1100319466D
:10024C00064802F041FC00BF2037BD4680BD00BF10
:10025C000010024000100140000C01400008014059
:10026C0080B500AF124B134A1A60114B124A5A60F8
:10027C000F4B00229A600E4B0022DA600C4B4FF4AD
:10028C0080421A610A4B00225A61094B00229A6182
:10029C00074B0022DA61064B00221A62044802F076
:1002AC00DFFD0346002B01D000F0D1FC00BF80BD68
:1002BC00E000002000540040A086010080B588B00A
:1002CC0000AF786007F1100300221A605A609A6040
:1002DC00DA607B681B68154A934223D1144B9B69E7
:1002EC00134A43F008039361114B9B6903F0080315
:1002FC00FB60FB68C0233B6112237B610323FB6122
:10030C0007F1100319460B4802F0DEFB084BDB69C2
:10031C00074A43F40013D361054BDB6903F4001364
:10032C00BB60BB6800BF2037BD4680BD0054004099
:10033C0000100240000C014080B582B000AF0023D9
:10034C00FB7101224FF40041BC4802F058FD012220
:10035C002021BA4802F053FD01224FF40051B74856
:10036C0002F04DFD01224FF48051B44802F047FDDC
:10037C00052002F0C5F900224FF40041AF4802F00D
:10038C003EFD052002F0BCF94FF40041AC4802F0F0
:10039C001FFD0346002B0CD100BF4FF40041A848B1
:1003AC0002F016FD0346002BF7D00123FB71FB79FD
:1003BC007CE14FF48051A24802F00AFD0346002B69
:1003CC000CD100BF4FF480519D4802F001FD034653
:1003DC00002BF7D00523FB71FB7967E14FF400612B
:1003EC00974802F0F5FC0346002B0CD100BF4FF4EC
:1003FC000061934802F0ECFC0346002BF7D0092374
:10040C00FB71FB7952E14FF480718D4802F0E0FCF6
:10041C000346002B0CD100BF4FF48071884802F0CA
:10042C00D7FC0346002BF7D00D23FB71FB793DE184
:10043C0001224FF40041814802F0E1FC052002F05A
:10044C005FF9002220217D4802F0D9FC052002F042
:10045C0057F94FF400417A4802F0BAFC0346002BDE
:10046C000CD100BF4FF40041754802F0B1FC0346BB
:10047C00002BF7D00223FB71FB7917E14FF480516D
:10048C006F4802F0A5FC0346002B0CD100BF4FF4C3
:10049C0080516B4802F09CFC0346002BF7D00623DE
:1004AC00FB71FB7902E14FF40061654802F090FCAE
:1004BC000346002B0CD100BF4FF40061604802F0E2
:1004CC0087FC0346002BF7D00A23FB71FB79EDE088
:1004DC004FF480715A4802F07BFC0346002B0CD180
:1004EC0000BF4FF48071564802F072FC0346002B9B
:1004FC00F7D00E23FB71FB79D8E0012220214F4865
:10050C0002F07DFC052002F0FBF800224FF40051B4
:10051C004A4802F074FC052002F0F2F84FF4004156
:10052C00474802F055FC0346002B0CD100BF4FF49A
:10053C000041434802F04CFC0346002BF7D0032348
:10054C00FB71FB79B2E04FF480513D4802F040FC66
:10055C000346002B0CD100BF4FF48051384802F0F9
:10056C0037FC0346002BF7D00723FB71FB799DE08A
:10057C004FF40061324802F02BFC0346002B0CD1E7
:10058C0000BF4FF400612E4802F022FC0346002B02
:10059C00F7D00B23FB71FB7988E04FF4807128486E
:1005AC0002F016FC0346002B0CD100BF4FF48071F7
:1005BC00234802F00DFC0346002BF7D00F23FB71F0
:1005CC00FB7973E001224FF400511C4802F017FC38
:1005DC00052002F095F800224FF48051174802F0E4
:1005EC000EFC052002F08CF84FF40041144802F088
:1005FC00EFFB0346002B0CD100BF4FF40041104819
:10060C0002F0E6FB0346002BF7D00423FB71FB79C9
:10061C004CE04FF480510A4802F0DAFB0346002B01
:10062C0010D100BF4FF48051054802F0D1FB0346B6
:10063C00002BF7D00823FB71FB7937E0000C01404D
:10064C00000801404FF400611A4802F0C1FB034658
:10065C00002B0CD100BF4FF40061164802F0B8FB20
:10066C000346002BF7D00C23FB71FB791EE04FF4F3
:10067C008071104802F0ACFB0346002B0CD100BF7C
:10068C004FF480710B4802F0A3FB0346002BF7D00C
:10069C001023FB71FB7909E001224FF480510648CD
:1006AC0002F0ADFB052002F02BF8002318460837AA
:1006BC00BD4680BD00080140000C014080B582B0F1
:1006CC0000AF0023FB71FFF737FE0346BB71BB790C
:1006DC00013B0F2B52D801A252F823F02907000836
:1006EC002F070008350700083B07000841070008E2
:1006FC00470700084D070008530700085907000872
:10070C005F070008650700086B0700087107000801
:10071C00770700087D070008830700083123FB7169
:10072C002DE03223FB712AE03323FB7127E04123B8
:10073C00FB7124E03423FB7121E03523FB711EE0B7
:10074C003623FB711BE04223FB7118E03723FB714E
:10075C0015E03823FB7112E03923FB710FE04323C2
:10076C00FB710CE02A23FB7109E03023FB7106E0DE
:10077C002323FB7103E04423FB7100E000BFFB79F2
:10078C0018460837BD4680BD80B586B002AF03461B
:10079C00FB71FB7923F00F03FB73FB791B01BB731C
:1007AC00FB7B43F00C03DBB23B72FB7B43F0080397
:1007BC00DBB27B72BB7B43F00C03DBB2BB72BB7B4B
:1007CC0043F00803DBB2FB7207F1080264230093C9
:1007DC0004234E21044802F087FC012001F090FF15
:1007EC0000BF1037BD4680BDE000002080B586B04C
:1007FC0002AF0346FB71FB7923F00F03FB73FB790C
:10080C001B01BB73FB7B43F00D03DBB23B72FB7B29
:10081C0043F00903DBB27B72BB7B43F00D03DBB20D
:10082C00BB72BB7B43F00903DBB2FB7207F108021E
:10083C006423009304234E21034802F055FC00BFAF
:10084C001037BD4680BD00BFE000002080B500AF72
:10085C003320FFF799FF3220FFF796FF322001F08B
:10086C004FFF2820FFF790FF322001F049FF0120B5
:10087C00FFF78AFF462001F043FF0620FFF784FFB5
:10088C00322001F03DFF0C20FFF77EFF322001F0FB
:10089C0037FF0220FFF778FF322001F031FF802074
:1008AC00FFF772FF00BF80BD80B582B000AF7860EB
:1008BC0006E07B685A1C7A601B781846FFF796FF97
:1008CC007B681B78002BF4D100BF00BF0837BD46F6
:1008DC0080BD80B500AF0120FFF756FF0A2001F064
:1008EC000FFF00BF80BD80B584B000AF7860396069
:1008FC007B68012B08D17B68DAB23B68DBB213440E
:10090C00DBB27F33FB7322E07B68022B09D13B689F
:10091C00DBB24033DBB25BB263F07F035BB2FB73E1
:10092C0015E07B68032B09D13B68DBB21433DBB2D7
:10093C005BB263F07F035BB2FB7308E03B68DBB236
:10094C005433DBB25BB263F07F035BB2FB73FB7BB4
:10095C001846FFF719FF00BF1037BD4680BD80B5A4
:10096C0082B000AF03463A60FB710B46BB71FA795B
:10097C00BB79013B19461046FFF7B5FF3868FFF706
:10098C0093FF00BF0837BD4680BD80B582B000AF75
:10099C000346FB710B46BB7113467B71FB79BA792D
:1009AC0011461846FFF79FFF7B791846FFF71EFF8D
:1009BC0000BF0837BD4680BD80B582B000AF7860FF
:1009CC007B681A68364B1B689A422CD1354B1B78C6
:1009DC003C2B05D1334B01225A70324B00229A70BA
:1009EC00304B9B78002B10D02E4BB3F86830194647
:1009FC002C4B1A782B4B0B44DA702A4BB3F868301B
:100A0C0001339AB2274BA3F86820264B1B783E2B58
:100A1C0009D1244B01229A70224B00225A70214B8F
:100A2C000022A3F868207B681A681F4B1B689A4247
:100A3C0028D11E4B1B78232B02D11C4B01221A737D
:100A4C001A4B5B78002B11D0184B1B7B002B0DD154
:100A5C00164B5B7B1946154B1A78144B0B449A704A
:100A6C00124B5B7B0133DAB2104B5A730F4B1B7872
:100A7C002A2B02D10D4B01225A704FF400510C4815
:100A8C0002F0D5F901220949074803F042FE012280
:100A9C000449034803F03DFE00BF0837BD4680BD46
:100AAC00C80300203401002080030020B402002081
:100ABC000010014080B582B000AF01F0BFFD00F026
:100ACC0081F8FFF74FFBFFF7CBFB01F07FFB01F049
:100ADC00A7FC01F0CFFC00F0B2FAFFF7B7FE6420E0
:100AEC0001F00EFEFFF7F5FE4FF4FA7001F008FE70
:100AFC00284A01210120FFF732FF4FF4FA6001F080
:100B0C00FFFD254800F0DCFA4FF47A7001F0F8FD97
:100B1C00224800F0D5FA4FF47A7001F0F1FD20482C
:100B2C0000F0CEFA4FF47A7001F0EAFD1D4800F0A7
:100B3C00C7FA4FF47A7001F0E3FD1B4800F0C0FADD
:100B4C004FF47A7001F0DCFD01221849184803F0CB
:100B5C00E0FD01221749184803F0DBFD64230F2246
:100B6C001649154803F052FD00237B600AE04FF450
:100B7C000051134802F05BF9642001F0C1FD7B6861
:100B8C0001337B607B68092BF1DD00F07BFB00F00F
:100B9C007DFCFAE7945C0008A05C0008A45C0008EB
:100BAC00AC5C0008B45C0008C05C00083401002098
:100BBC00C8030020B402002080030020CC5C000895
:100BCC000010014080B590B000AF07F11803282247
:100BDC000021184604F07AFB3B1D00221A605A6073
:100BEC009A60DA601A610123BB614FF48033FB61B8
:100BFC0000233B620123BB6202237B634FF48033EF
:100C0C00BB634FF4E013FB6307F11803184602F0C3
:100C1C00C3FD0346002B01D000F019F80F237B60B5
:100C2C000223BB600023FB604FF480633B61002315
:100C3C007B613B1D0221184603F030F80346002B64
:100C4C0001D000F004F800BF4037BD4680BD80B431
:100C5C0000AF72B600BFFEE780B586B002AF0346A8
:100C6C00FB71FB793B7307F1080207F10C010A23B6
:100C7C0000930123034803F023FA3B7A18461037FC
:100C8C00BD4680BD2403002080B582B000AF034672
:100C9C000A46FB711346BB7100220121094802F080
:100CAC00AEF8FB791846FFF7D7FFBB791846FFF76C
:100CBC00D3FF01220121034802F0A1F800BF08373D
:100CCC00BD4680BD000C014080B584B000AF03462A
:100CDC00FB71002201210B4802F091F8FB791846B8
:100CEC00FFF7BAFF0020FFF7B7FF0346FB730122A3
:100CFC000121044802F083F8FB7B18461037BD46EF
:100D0C0080BD00BF000C014080B582B000AF03462F
:100D1C000A46FB711346BB71FB795B00DBB203F037
:100D2C007E03FB71BA79FB7911461846FFF7ACFFCD
:100D3C0000BF0837BD4680BD80B584B000AF034608
:100D4C00FB71FB795B005BB203F07E035BB263F07B
:100D5C007F035BB2FB71FB791846FFF7B5FF0346C7
:100D6C00FB73FB7B18461037BD4680BD80B582B047
:100D7C0000AF03460A46FB711346BB71FB7918465C
:100D8C00FFF7DAFF03461A46BB791343DAB2FB7955
:100D9C0011461846FFF7B8FF00BF0837BD4680BDA7
:100DAC0080B582B000AF03460A46FB711346BB7197
:100DBC00FB791846FFF7C0FF03465AB297F9063085
:100DCC00DB435BB213405BB2DAB2FB7911461846D7
:100DDC00FFF79AFF00BF0837BD4680BD80B586B0CF
:100DEC0002AF03463960FB7107210D20FFF78CFF22
:100DFC003B68FA791A7007F10C0300933B680122E7
:100E0C0039680C2000F00FF80346FB73FB7B002BBA
:100E1C0002D1BB89102B01D00223FB73FB7B18463C
:100E2C001037BD4680BD90B587B000AFB9607B6010
:100E3C000346FB731346BB730223FB750023BB7580
:100E4C0000237B75FB7B0C2B06D00E2B09D11223B8
:100E5C00BB7510237B7505E07723BB7530237B7541
:100E6C0000E000BFBB7D63F07F03DBB219460220BC
:100E7C00FFF74AFF80210420FFF792FF80210A2010
:100E8C00FFF774FF00210120FFF73EFF00237B8258
:100E9C000AE07B8ABA6813441B7819460920FFF7CD
:100EAC0033FF7B8A01337B82BB7B9BB27A8A9A426B
:100EBC00EFD3FB7B19460120FFF726FFFB7B0C2BA6
:100ECC0003D180210D20FFF751FF4FF4FA637B8291
:100EDC000420FFF731FF03463B757B8A013B7B8285
:100EEC007B8A002B0AD03B7D03F00103002B05D13C
:100EFC003A7D7B7D1340DBB2002BE9D080210D20A5
:100F0C00FFF74EFF7B8A002B57D00620FFF714FF0C
:100F1C00034603F01B03002B4DD10023FB753A7DD8
:100F2C00BB7D1340DBB203F00103002B01D0012386
:100F3C00FB75FB7B0C2B40D10A20FFF7FDFE034613
:100F4C003B750C20FFF7F8FE034603F007037B7498
:100F5C007B7C002B0BD03B7D013B9BB2DB009AB220
:100F6C007B7C9BB213449AB2BB6A1A8005E03B7D32
:100F7C009BB2DB009AB2BB6A1A803B7D002B01D17D
:100F8C0001233B753B7D102B01D910233B750023AE
:100F9C007B820AE07B8A7A68D4180920FFF7CCFEA2
:100FAC00034623707B8A01337B823B7D9BB27A8A1A
:100FBC009A42EFD301E00223FB75FB7D18461C37E8
:100FCC00BD4690BD80B586B002AF786000237B73C0
:100FDC0000210D20FFF798FE7B6893221A707B6826
:100FEC00013320221A7007F10A0300937B68022256
:100FFC0079680C20FFF717FF0346FB73FB7B002B74
:10100C0018D10023BB7309E0BB7B7A6813441A78B0
:10101C007B7B53407B73BB7B0133BB73BB7B032B51
:10102C00F2D9BB7B7A6813441B787A7B9A4201D045
:10103C000223FB73FB7B18461037BD4680BD80B581
:10104C0000AF00F020F88D212A20FFF75DFE3E2135
:10105C002B20FFF759FE1E212D20FFF755FE0021F6
:10106C002C20FFF751FE70212620FFF74DFE40216A
:10107C001520FFF749FE3D211120FFF745FE00F03A
:10108C000AF800BF80BD80B500AF0F210120FFF72B
:10109C003BFE00BF80BD80B582B000AF1420FFF7CF
:1010AC004BFE0346FB71FB7903F00303002B03D1CA
:1010BC0003211420FFF75AFE00BF0837BD4680BD40
:1010CC000FB480B582B000AF00237B6007F114032E
:1010DC003B603B683A694FF480710A4804F06EF942
:1010EC000848FFF737F878607B689AB264230549A3
:1010FC00054803F08BFA00BF0837BD46BDE88040B9
:10110C0004B07047A0010020C803002080B584B053
:10111C0000AF786039601148FFF7D2FFC82001F0AA
:10112C00EFFA79680E48FFF7CBFFC82001F0E8FA18
:10113C0039680C48FFF7C4FFC82001F0E1FA1A2304
:10114C003B7307F10C0164230122074803F05EFA9C
:10115C00012318461037BD4680BD00BFDC5C00087B
:10116C00E85C0008F85C0008C803002080B582B079
:10117C0000AF394B00221A60384B00221A70002342
:10118C007B6000F00FFF00F029F9354B1B78002B2A
:10119C005CD1324B00221A70FFF790FA03461A46C4
:1011AC002E4B1A702D4B1B78002B02D02B4B1B781F
:1011BC004DE07B68632B07DC7B6801337B60294B3C
:1011CC005B78002B17D003E0244B31221A703EE0E1
:1011DC002549264804F0B1F80346002B02D0244BD5
:1011EC0001221A701F4B00225A70642200211F48E2
:1011FC0004F06CF82BE01F4B1B7B002BC1D01E495D
:10120C001E4804F09AF80346002B03D0194B012218
:10121C009A7309E01A49194804F08FF80346002B19
:10122C0002D0144B02229A73124B00221A70114BEB
:10123C0000225A700A220021104804F047F80D4B86
:10124C0000221A730B4B00225A7300E000BF1846A1
:10125C000837BD4680BD00BFC8020020C502002073
:10126C00C402002034010020FC5C0008370100207F
:10127C00C3020020B4020020045D0008B602002066
:10128C00085D000880B500AFFFF723FB2F4B002251
:10129C001A702F4A01210120FFF761FB2D4A012111
:1012AC000220FFF75CFBFFF761FF284B1B782A2B12
:1012BC0042D0294B1B78012B40D0284B9B7B012B18
:1012CC003ED0264B9B7B022B15D1244B00229A73CC
:1012DC00FFF7FFFA224A01210120FFF740FB214AC8
:1012EC0001210220FFF73BFB40F2DC5001F008FA31
:1012FC00FFF7EFFACDE7184B1B78022B17D114220E
:10130C000021194803F0E2FFFFF7E3FA174A012125
:10131C000120FFF724FB164A01210220FFF71FFBD7
:10132C0040F2DC5001F0ECF9FFF7D3FAB1E7114BC6
:10133C001B78002B06D1ACE700BF04E000BF02E035
:10134C0000BF00E000BF00BF80BD00BFC502002091
:10135C00105D0008205D0008C4020020B4020020CB
:10136C00305D0008405D000810030020485D000857
:10137C00545D0008C302002080B500AF00F020FBD4
:10138C00FFF7A7FA054A01210120FFF7E8FA044A02
:10139C0001210220FFF7E3FA00BF80BD645D000865
:1013AC00745D000880B400AF00BFBD4680BC7047C0
:1013BC0080B500AF01224FF48041074801F01FFDBA
:1013CC0040F6B83001F09CF900224FF480410248FD
:1013DC0001F015FD00BF80BD0010014080B500AFCD
:1013EC0018491948FEF7ACFE0346002B0DD01749DF
:1013FC001548FEF7A5FE0346002B06D014491248EB
:10140C00FEF79EFE0346002B09D1142200210E4844
:10141C0003F05CFF0F4B01221A70012310E00A4B02
:10142C001B78002B08D014220021074803F04EFF34
:10143C00084B02221A7002E0064B00221A7000239D
:10144C00184680BD0000002010030020140000206E
:10145C0028000020C402002080B483B000AF002319
:10146C007B6007E0084A7B68134400221A707B6893
:10147C0001337B607B68132BF4DD00BF00BF0C379E
:10148C00BD4680BC704700BFCC02002080B584B044
:10149C0000AF0023FB710023FB730123BB60A04B47
:1014AC0000221A709F4B1B78012B15D19D4B0022EB
:1014BC001A70FFF70EFA9C4A01210120FFF74FFA30
:1014CC009A4A01210220FFF74AFA4FF47A7001F090
:1014DC0017F9FFF7FEF9C2E1954B1B78002B14D0DE
:1014EC00934B00221A70FFF7F4F9924A0121012064
:1014FC00FFF735FA90499148FFF708FE4FF47A70E0
:10150C0001F0FEF8FFF7E5F9A9E18D4B9B7B002B71
:10151C0015D08B4B00229A73FFF7DBF9894A012116
:10152C000120FFF71CFA884A01210220FFF717FA65
:10153C004FF47A7001F0E4F8FFF7CBF98FE1FFF785
:10154C008BFFE8E0FFF7C5F9804A01210120FFF786
:10155C0006FA0023BB60BB680A2B10DDBB68013B9D
:10156C007B4A82FB03129210DB17D31ADBB23033A7
:10157C00DBB21A460F210120FFF707FA04E0202204
:10158C000F210120FFF701FABB685A1E704B83FB39
:10159C0002139910D317C91A0B469B000B445B001E
:1015AC00D11ACBB23033DBB21A4610210120FFF72F
:1015BC00ECF9BB680F2B02DCFFF7D8FD0DE0FFF751
:1015CC00D5FD574B1B78422B07D0554B1B78412B25
:1015DC0003D0022001F094F8F1E7514B1B78422B19
:1015EC0036D04F4B1B78412B18D1BB68013B594A65
:1015FC00D35C002B12D0BB68002B02DDBB68013B17
:10160C00BB60544ABB68134400221A70BB68DBB23F
:10161C00202219460220FFF7B8F918E0404B1B783E
:10162C00412B98D03E4B1B78002B94D03C4B197817
:10163C00484ABB6813440A461A70BB68DBB22A22BC
:10164C0019460220FFF7A1F9BB680133BB6082E7A2
:10165C0000BFC82001F054F8FFF73BF93E4A0121C6
:10166C000120FFF77CF94FF4967001F049F83B49E3
:10167C003848FEF765FD0346002B3FD0FFF729F9EC
:10168C00374A01210120FFF76AF9364A012102206D
:10169C00FFF765F9FB7B3133DBB21A460B210220D5
:1016AC00FFF773F94FF47A7001F02AF8FFF711F98C
:1016BC00FB7B012B09D82C4A01210120FFF74FF9A4
:1016CC002A4A01210220FFF74AF9FB7B022B09D1A0
:1016DC00274A01210120FFF742F9264A0121022065
:1016EC00FFF73DF94FF47A7001F00AF8FB7B0133F8
:1016FC00FB730023BB600023FB710CE0052000F0A2
:10170C00FFFFFFF7E6F81C4A04210120FFF727F939
:10171C000923FB7303E0FB7B022B7FF613AF99E0ED
:10172C00C5020020C4020020845D0008945D0008FE
:10173C00C30200209C5D0008AC5D0008A0020020E4
:10174C00B4020020B85D0008C45D0008CC5D000840
:10175C0067666666CC020020D85D00083C0000205D
:10176C00EC5D0008FC5D0008085E0008185E0008CF
:10177C00245E0008345E0008445E0008FFF7A9F8F8
:10178C007A497B48FFF7C2FC7A4A01210120FFF716
:10179C00E6F84FF47A7000F0B3FFFFF79AF8764A48
:1017AC0005210120FFF7DBF8744A04210220FFF722
:1017BC00D6F801224FF40041714801F020FB40F6AD
:1017CC00B83000F09DFF00224FF400416C4801F04E
:1017DC0016FBFFF7CBFC6B4B1B78012B14D1FFF7DF
:1017EC0078F8694A01210120FFF7B9F8674A01210D
:1017FC000220FFF7B4F80923FB734FF47A7000F062
:10180C007FFFFFF766F825E05E4B1B78022BE0D1DB
:10181C00142200215E4803F059FDFFF75AF85D4A87
:10182C0001210120FFF79BF85B4A01210220FFF701
:10183C0096F840F2DC5000F063FFFFF74AF84E4A8E
:10184C0005210120FFF78BF84C4A04210220FFF7F9
:10185C0086F8BEE7FB7B092B90D17DE000BF4F4A99
:10186C0001210120FFF77BF8FFF7A2FDFFF731F80C
:10187C004B4A01210120FFF772F84A4A012102204C
:10188C00FFF76DF8FFF772FC3E4B1B78012B17D15D
:10189C003C4B00221A70FFF71CF8434A012101202F
:1018AC00FFF75DF8414A01210220FFF758F84FF489
:1018BC007A7000F025FFFFF70CF83D4B31221A70BF
:1018CC003B4B1B78312B0ED1394B00221A70002365
:1018DC00FB73FEF7FEFF374A01210120FFF73FF8AB
:1018EC00FFF760FD38E0324B1B78322B01D1FFF74C
:1018FC0043FD2F4B1B78332B0BD1FEF7EAFF2E4AFF
:10190C0001210120FFF72BF82C4A01210220FFF7BF
:10191C0026F8274B1B78342B0BD1FEF7DAFF204A25
:10192C0001210120FFF71BF81E4A01210220FFF7BD
:10193C0016F81F4B1B78352BA4D100F037FAFEF7A5
:10194C00C8FF1D4A01210120FFF709F81B4A01219C
:10195C000220FFF704F895E7FB7B092B3FF47EAFE1
:10196C0000BF00BF1037BD4680BD00BF505E0008F1
:10197C00A0020020685E0008785E0008805E000807
:10198C0000100140C40200208C5E0008945E000828
:10199C0010030020485D0008545D0008A05E00089C
:1019AC00645D0008745D0008B05E0008C05E00084D
:1019BC00C5020020CC5E0008DC5E0008EC5E00086E
:1019CC0080B582B000AF0023FB71FEF782FF054AA1
:1019DC0001210120FEF7C3FF00F006F800BF083715
:1019EC00BD4680BDF85E000880B584B000AF002312
:1019FC00FB710023FB730123BB60A54B00221A7003
:101A0C00FFF72AFD83E1FEF764FFA24A01210120C2
:101A1C00FEF7A5FF0023BB60BB680A2B10DDBB687B
:101A2C00013B9D4A82FB03129210DB17D31ADBB2E7
:101A3C003033DBB21A460F210120FEF7A6FF04E07B
:101A4C0020220F210120FEF7A0FFBB685A1E924BEB
:101A5C0083FB02139910D317C91A0B469B000B4436
:101A6C005B00D11ACBB23033DBB21A461021012005
:101A7C00FEF78BFFBB680F2B02DCFFF777FB0DE04B
:101A8C00FFF774FB824B1B78422B07D0804B1B78E3
:101A9C00412B03D0022000F033FEF1E77C4B1B7886
:101AAC00422B32D07A4B1B78412B18D1BB68013BAF
:101ABC007A4AD35C002B12D0BB68012B02DDBB68C9
:101ACC00013BBB60754ABB68134400221A70BB68AB
:101ADC00DBB2202219460220FEF757FF14E06C4BB4
:101AEC001B78412B98D06A4B19786C4ABB6813440D
:101AFC000A461A70BB68DBB22A2219460220FEF78E
:101B0C0044FFBB680133BB6086E700BFC82000F010
:101B1C00F7FDFEF7DEFE624A01210120FEF71FFFF2
:101B2C004FF4967000F0ECFD5E495C48FEF708FB44
:101B3C000346002B3FD0FEF7CCFE5B4A012101206F
:101B4C00FEF70DFF594A01210220FEF708FFFB7B2F
:101B5C003133DBB21A460B210220FEF716FF4FF48D
:101B6C007A7000F0CDFDFEF7B4FEFB7B022B09D0A2
:101B7C004F4A01210120FEF7F2FE4E4A01210220BC
:101B8C00FEF7EDFEFB7B022B09D14B4A0121012014
:101B9C00FEF7E5FE494A01210220FEF7E0FE4FF474
:101BAC007A7000F0ADFDFB7B0133FB730023BB604F
:101BBC000023FB71ABE0FEF78CFE414A01210120B2
:101BCC00FEF7CDFE0023BB60BB680A2B10DDBB68A3
:101BDC00013B314A82FB03129210DB17D31ADBB2A2
:101BEC003033DBB21A460F210120FEF7CEFE04E0A3
:101BFC0020220F210120FEF7C8FEBB685A1E264B7F
:101C0C0083FB02139910D317C91A0B469B000B4484
:101C1C005B00D11ACBB23033DBB21A461021012053
:101C2C00FEF7B3FEBB680F2B02DCFFF79FFA0DE04B
:101C3C00FFF79CFA164B1B78422B07D0144B1B78E2
:101C4C00412B03D0022000F05BFDF1E7104B1B7819
:101C5C00422B56D00E4B1B78412B33D1BB68013B2A
:101C6C000E4AD35C002B2DD0BB68002B02DDBB6869
:101C7C00013BBB600B4ABB68134400221A70BB6863
:101C8C00DBB2202219460220FEF77FFE38E000BFAF
:101C9C00C5020020085F000867666666CC0200205B
:101CAC00185F00083C000020EC5D0008FC5D00089B
:101CBC00085E0008185E0008245E0008345E000808
:101CCC002C5F0008314B1B78412B3FF47DAF2F4B21
:101CDC0019782F4ABB6813440A461A702B4B197893
:101CEC002C4ABB6813440A461A70BB68DBB2274AFD
:101CFC00127819460220FEF748FEBB680133BB6020
:101D0C0062E700BFC82000F0FBFC0923FB73FB7BE0
:101D1C00022B7FF678AEFB7B092B0CD0FEF7D9FD9E
:101D2C001D4A05210120FEF71AFE1C4A042102203F
:101D3C00FEF715FEFEE7FB7B092B22D1FEF7C9FD52
:101D4C00174A01210120FEF70AFE164A0121022042
:101D5C00FEF705FE40F2DC5000F0D2FCFEF7B9FDB8
:101D6C00114A01210120FEF7FAFD0A4A0121022045
:101D7C00FEF7F5FD4FF4FA6000F0C2FCFEF7A9FD8A
:101D8C0000BF00BF1037BD4680BD00BFC50200209C
:101D9C00CC0200203C000020785E0008805E000829
:101DAC003C5F00084C5F00085C5F000880B582B0A7
:101DBC0000AFFEF78EFD584A01210120FEF7CFFD42
:101DCC00564A01210220FEF7CAFDFFF7CFF9544B0A
:101DDC001B78312B11D1FEF77CFD524A01210120D9
:101DEC00FEF7BDFD504A01210220FEF7B8FD40F67A
:101DFC00B83000F085FCFEF76CFD494B1B78332B9B
:101E0C0000F08580464B1B78322BD4D1FEF761FD58
:101E1C00464A01210120FEF7A2FD0023FB71FB794C
:101E2C000F2B02D8FFF7A2F90DE0FFF79FF93C4BFF
:101E3C001B78422B07D03A4B1B78412B03D0022046
:101E4C0000F05EFCF1E7364B1B78422B24D11422B8
:101E5C000021354803F03AFA3548FEF77BF9034682
:101E6C001A463349304803F023FAFEF732FD314A63
:101E7C0001210120FEF773FD4FF47A7000F040FC55
:101E8C0000BF254A01210120FEF769FD2A4A0121E4
:101E9C000220FEF764FD8EE7214B1B78412B16D1F7
:101EAC00FB79013B224AD35C002B10D0FB79002B31
:101EBC0002D0FB79013BFB71FB791D4A0021D15407
:101ECC00FB79202219460220FEF75FFD1EE0144B21
:101EDC001B78412BA3D0124B1B78002B9FD0104B9F
:101EEC001B78432B9BD00E4B1B78442B97D0FB7944
:101EFC000B4A11780E4AD154094B1A78FB791946C2
:101F0C000220FEF742FDFB790133FB7187E700BF2E
:101F1C0000BF0837BD4680BD705F0008805F0008B9
:101F2C00C5020020905F0008A0020020A45F0008FA
:101F3C00CC020020B05F0008BC5F000890B486B0F3
:101F4C0000AF0346FB71154B07F108040FCB84E877
:101F5C000F00FB790F2B0AD8114B30221A70FB792A
:101F6C0018333B4413F8102C0D4B5A7011E0FB79CD
:101F7C001B09DBB218333B4413F8102C084B1A70B6
:101F8C00FB7903F00F0318333B4413F8102C044B6C
:101F9C005A7000BF1837BD4690BC7047C85F000828
:101FAC00F002002080B582B000AF7B492620FEF7FE
:101FBC0015FF0346002B40F0CA807748FFF702F864
:101FCC000346002B40F0C380744B00221A70744BF4
:101FDC0000221A70734B09221A70734B01221A706B
:101FEC00724B00221A7014E0704B1B781A46704B1F
:101FFC009A5C6E4B1B781946674B5B5C9A4202D01D
:10200C00664B01221A70694B1B780133DAB2674BAD
:10201C001A70664B1B78032BE6D9614B00221A70A1
:10202C00614B00221A70614B00221A700FE05F4B5B
:10203C001B7819465D4B1B781A46574B595C5C4B09
:10204C0099545A4B1B780133DAB2584B1A70574BD0
:10205C001B78032BEBD9554B00221A7027E0534BFE
:10206C001B781A464C4B9B5C1846FFF767FF4D4B91
:10207C001B781A464F4B19784F4B9954494B1B7888
:10208C000133DAB2474B1A70464B1B781A46494B50
:10209C005978494B9954434B1B780133DAB2414B75
:1020AC001A70424B1B780133DAB2404B1A703F4B1B
:1020BC001B78032BD3D90E237B6021E000233B70CC
:1020CC003D4A7B6813441B78002B16D03A4A7B6838
:1020DC0013441B781A463B463849184603F0FEF861
:1020EC00374B1B78002B03D13A78354B1A7004E030
:1020FC003B461946324803F011F97B6801337B608B
:10210C007B68112BDADD4FF4967000F0F9FA2D4B49
:10211C0001221A70254B00221A7014E0234B1B78F5
:10212C000933254AD25C214B1B781946264B5B5C44
:10213C009A4202D0234B00221A701C4B1B7801339D
:10214C00DAB21A4B1A70194B1B78072BE6D9144BC1
:10215C001B780133DAB2124B1A70114B1B78002B1F
:10216C0016D1114B01221A70104B00221A700BE081
:10217C000E4B1B781A460E4B002199540B4B1B78B7
:10218C000133DAB2094B1A70084B1B78032BEFD9C9
:10219C0000BF0837BD4680BD00030020E1020020CF
:1021AC00E3020020E2020020E4020020E002002012
:1021BC00FC020020F0020020E8020020D85F00089A
:1021CC0010030020E50200204C00002080B500AF79
:1021DC00174B184A1A60164B4FF482725A60144B04
:1021EC0000229A60124B0022DA60114B00221A6115
:1021FC000F4B00225A610E4B4FF400729A610C4B3C
:10220C003822DA610A4B00221A62094B00225A6208
:10221C00074B00229A62064B0A22DA62044801F04C
:10222C00CBFE0346002B01D0FEF711FD00BF80BD95
:10223C00240300200030014080B588B000AF7860E6
:10224C0007F1100300221A605A609A60DA607B680A
:10225C001B681B4A93422FD11A4B9B69194A43F4B2
:10226C0080539361174B9B6903F48053FB60FB68AD
:10227C00144B9B69134A43F004039361114B9B6904
:10228C0003F00403BB60BB68A0233B6102237B61AA
:10229C000323FB6107F1100319460B4800F014FCF3
:1022AC0040233B6100237B610023BB6107F11003DA
:1022BC001946054800F008FC00BF2037BD4680BD1C
:1022CC0000300140001002400008014080B485B08D
:1022DC0000AF154B9B69144A43F001039361124BF9
:1022EC009B6903F00103BB60BB680F4BDB690E4AB3
:1022FC0043F08053D3610C4BDB6903F080537B605C
:10230C007B680A4B5B68FB60FB6823F0E063FB6057
:10231C00FB6843F00073FB60044AFB68536000BF2A
:10232C001437BD4680BC70470010024000000140CD
:10233C0080B400AFFEE780B400AFFEE780B400AF1E
:10234C00FEE780B400AFFEE780B400AFFEE780B4D8
:10235C0000AF00BFBD4680BC704780B400AF00BF6B
:10236C00BD4680BC704780B400AF00BFBD4680BC8A
:10237C00704780B500AF00F0A7F900BF80BD00002A
:10238C0080B500AF024802F0E9F900BF80BD00BF84
:10239C008003002080B500AF024802F0DFF900BFD7
:1023AC0080BD00BFC803002080B586B000AF786048
:1023BC00144A154BD31A7B617B693B61134B1B6829
:1023CC00002B02D1114B124A1A60104B1A687B6811
:1023DC0013443A699A4207D202F040FF03460C229A
:1023EC001A604FF0FF3309E0084B1B68FB60074B8A
:1023FC001A687B681344054A1360FB681846183743
:10240C00BD4680BD00500020000400007C0300206D
:10241C002804002080B400AF00BFBD4680BC7047CC
:10242C0080B500AF114B124A1A60104B4FF4E132D9
:10243C005A600E4B00229A600C4B0022DA600B4B58
:10244C0000221A61094B0C225A61084B00229A6136
:10245C00064B0022DA61054802F088F80346002B8F
:10246C0001D0FEF7F4FB00BF80BD00BF800300204D
:10247C000038014080B500AF114B124A1A60104B66
:10248C004FF4E1325A600E4B00229A600C4B002242
:10249C00DA600B4B00221A61094B0C225A61084B73
:1024AC0000229A61064B0022DA61054802F05EF8C0
:1024BC000346002B01D0FEF7CAFB00BF80BD00BF56
:1024CC00C80300200044004080B58AB000AF78609B
:1024DC0007F1180300221A605A609A60DA607B6870
:1024EC001B683F4A93423AD13E4B9B693D4A43F4A9
:1024FC00804393613B4B9B6903F480437B617B6915
:10250C00384B9B69374A43F004039361354B9B6905
:10251C0003F004033B613B694FF40073BB6102237E
:10252C00FB6103237B6207F1180319462E4800F068
:10253C00CBFA4FF48063BB610023FB6100233B6249
:10254C0007F118031946284800F0BEFA00220021B2
:10255C00252000F0D0F9252000F0E9F93CE07B685B
:10256C001B68224A934237D11E4BDB691D4A43F448
:10257C000033D3611B4BDB6903F40033FB60FB6856
:10258C00184B9B69174A43F004039361154B9B69E5
:10259C0003F00403BB60BB680423BB610223FB6133
:1025AC0003237B6207F1180319460F4800F08CFADD
:1025BC000823BB610023FB6100233B6207F1180376
:1025CC001946094800F080FA00220021262000F06C
:1025DC0092F9262000F0ABF900BF2837BD4680BD2C
:1025EC000038014000100240000801400044004047
:1025FC00FFF710FF0B480C490C4A002302E0D4589B
:10260C00C4500433C4188C42F9D3094A094C002332
:10261C0001E013600432A242FBD302F025FEFEF768
:10262C0049FA704700000020C400002044600008F4
:10263C00C400002024040020FEE7000080B500AF99
:10264C00084B1B68074A43F010031360032000F08B
:10265C0047F90F2000F008F8FFF738FE0023184662
:10266C0080BD00BF0020024080B582B000AF786012
:10267C00124B1A68124B1B7819464FF47A73B3FB42
:10268C00F1F3B2FBF3F3184600F05FF90346002BAD
:10269C0001D001230EE07B680F2B0AD80022796849
:1026AC004FF0FF3000F027F9064A7B6813600023D7
:1026BC0000E0012318460837BD4680BD54000020B9
:1026CC005C0000205800002080B400AF054B1B7844
:1026DC001A46054B1B681344034A136000BFBD46E2
:1026EC0080BC70475C0000201004002080B400AF58
:1026FC00024B1B681846BD4680BC70471004002076
:10270C0080B584B000AF7860FFF7F0FFB8607B68ED
:10271C00FB60FB68B3F1FF3F05D00A4B1B781A46F0
:10272C00FB681344FB6000BFFFF7E0FF0246BB6889
:10273C00D31AFA689A42F7D800BF00BF1037BD46CB
:10274C0080BD00BF5C00002080B485B000AF786015
:10275C007B6803F00703FB600C4BDB68BB60BA685B
:10276C004FF6FF031340BB60FB681A02BB681343B0
:10277C0043F0BF6343F40033BB60044ABB68D360CF
:10278C0000BF1437BD4680BC704700BF00ED00E0B1
:10279C0080B400AF044BDB681B0A03F00703184638
:1027AC00BD4680BC704700BF00ED00E080B483B034
:1027BC0000AF0346FB7197F90730002B0BDBFB795D
:1027CC0003F01F02064997F907305B09012000FA54
:1027DC0002F241F8232000BF0C37BD4680BC704785
:1027EC0000E100E080B483B000AF03463960FB71B8
:1027FC0097F90730002B0ADB3B68DAB20C4997F9E2
:10280C0007301201D2B20B4483F800230AE03B6874
:10281C00DAB20849FB7903F00F03043B1201D2B280
:10282C000B441A7600BF0C37BD4680BC704700BF06
:10283C0000E100E000ED00E080B489B000AFF8608A
:10284C00B9607A60FB6803F00703FB61FB69C3F1B5
:10285C000703042B28BF0423BB61FB690433062B3D
:10286C0002D9FB69033B00E000237B614FF0FF3290
:10287C00BB6902FA03F3DA43BB681A407B699A40DE
:10288C004FF0FF317B6901FA03F3D9437B680B40AE
:10289C00134318462437BD4680BC704780B582B0C0
:1028AC0000AF78607B68013BB3F1807F01D30123DB
:1028BC000FE00A4A7B68013B53600F214FF0FF3059
:1028CC00FFF790FF054B00229A60044B07221A6019
:1028DC00002318460837BD4680BD00BF10E000E05D
:1028EC0080B582B000AF78607868FFF72DFF00BF2D
:1028FC000837BD4680BD80B586B000AF0346B960D1
:10290C007A60FB7300237B61FFF742FF78617A6882
:10291C00B9687869FFF790FF024697F90F301146B6
:10292C001846FFF75FFF00BF1837BD4680BD80B566
:10293C0082B000AF0346FB7197F907301846FFF7DA
:10294C0035FF00BF0837BD4680BD80B582B000AFF3
:10295C0078607868FFF7A2FF034618460837BD4633
:10296C0080BD80B485B000AF78600023FB737B68BA
:10297C0093F82130DBB2022B08D07B6804229A63D7
:10298C007B68002283F82020012320E07B681B68F1
:10299C001A687B681B6822F00E021A607B681B6841
:1029AC001A687B681B6822F001021A607B681A6C3B
:1029BC007B68DB6B012101FA02F25A607B68012211
:1029CC0083F821207B68002283F82020FB7B1846AB
:1029DC001437BD4680BC704780B584B000AF7860BA
:1029EC000023FB737B6893F82130DBB2022B05D0FC
:1029FC007B6804229A630123FB7351E07B681B689C
:102A0C001A687B681B6822F00E021A607B681B68D0
:102A1C001A687B681B6822F001021A607B681B68CD
:102A2C00224A934229D07B681B68214A934222D0C8
:102A3C007B681B681F4A93421AD07B681B681E4A2E
:102A4C00934212D07B681B681C4A93420AD07B6865
:102A5C001B681B4A934202D14FF480130EE04FF0D7
:102A6C0080730BE04FF4803308E04FF4805305E0A3
:102A7C004FF4807302E0102300E00123114A5360ED
:102A8C007B68012283F821207B68002283F82020B8
:102A9C007B685B6B002B03D07B685B6B786898471B
:102AAC00FB7B18461037BD4680BD00BF08000240B6
:102ABC001C0002403000024044000240580002401A
:102ACC006C0002400000024080B48BB000AF786014
:102ADC00396000237B6200233B6269E101227B6A3F
:102AEC0002FA03F3FB613B681B68FA691340BB6194
:102AFC00BA69FB699A4240F058813B685B689A4A14
:102B0C0093425ED0984A934275D8984A934258D0D3
:102B1C00964A93426FD8964A934252D0944A934223
:102B2C0069D8944A93424CD0924A934263D8924AC1
:102B3C00934246D0904A93425DD8122B2AD8122B3E
:102B4C0059D801A252F823F0CF2B0008A92B00086A
:102B5C00BB2B0008FD2B0008032C0008032C0008DD
:102B6C00032C0008032C0008032C0008032C00087D
:102B7C00032C0008032C0008032C0008032C00086D
:102B8C00032C0008032C0008032C0008B12B0008B0
:102B9C00C52B0008794A934213D02CE03B68DB68C4
:102BAC003B6229E03B68DB6804333B6224E03B6812
:102BBC00DB6808333B621FE03B68DB680C333B622D
:102BCC001AE03B689B68002B02D104233B6213E0A4
:102BDC003B689B68012B05D108233B627B68FA6933
:102BEC001A6109E008233B627B68FA695A6103E0C9
:102BFC0000233B6200E000BFBB69FF2B01D87B6860
:102C0C0001E07B6804337B61BB69FF2B02D87B6AD4
:102C1C009B0002E07B6A083B9B003B617B691A6866
:102C2C000F213B6901FA03F3DB431A40396A3B6914
:102C3C0001FA03F31A437B691A603B685B6803F083
:102C4C008053002B00F0B1804D4B9B694C4A43F0F4
:102C5C00010393614A4B9B6903F00103BB60BB68A2
:102C6C00484A7B6A9B08023352F82330FB607B6A2C
:102C7C0003F003039B000F2202FA03F3DB43FA6811
:102C8C001340FB607B68404A934213D07B683F4AF9
:102C9C0093420DD07B683E4A934207D07B683D4AF5
:102CAC00934201D1032306E0042304E0022302E053
:102CBC00012300E000237A6A02F0030292009340A1
:102CCC00FA681343FB602F497B6A9B080233FA684E
:102CDC0041F823203B685B6803F48013002B06D07B
:102CEC002D4B9A682C49BB6913438B6006E02A4B29
:102CFC009A68BB69DB43284913408B603B685B686F
:102D0C0003F40013002B06D0234BDA682249BB696D
:102D1C001343CB6006E0204BDA68BB69DB431E49EA
:102D2C001340CB603B685B6803F40033002B06D088
:102D3C00194B5A681849BB6913434B6006E0164B94
:102D4C005A68BB69DB43144913404B603B685B68B2
:102D5C0003F48033002B21D00F4B1A680E49BB694A
:102D6C0013430B6021E000BF000032100000311053
:102D7C0000002210000021100000121000001110A1
:102D8C00001002400000014000080140000C01400E
:102D9C000010014000140140000401400B4B1A6864
:102DAC00BB69DB43094913400B607B6A01337B62CF
:102DBC003B681A687B6A22FA03F3002B7FF48EAE11
:102DCC0000BF00BF2C37BD4680BC704700040140DB
:102DDC0080B485B000AF78600B467B807B689A68C6
:102DEC007B881340002B02D00123FB7301E00023EE
:102DFC00FB73FB7B18461437BD4680BC704780B410
:102E0C0083B000AF78600B467B8013467B707B7879
:102E1C00002B03D07A887B681A6103E07B881A0444
:102E2C007B681A6100BF0C37BD4680BC704780B40C
:102E3C0085B000AF78600B467B807B68DB68FB60FD
:102E4C007A88FB6813401A04FB68D9437B880B40D3
:102E5C001A437B681A6100BF1437BD4680BC7047AB
:102E6C0080B584B000AF78607B68002B01D1012362
:102E7C002BE17B6893F83D30DBB2002B06D17B68ED
:102E8C00002283F83C207868FDF718FA7B6824222E
:102E9C0083F83D207B681B681A687B681B6822F0EE
:102EAC0001021A607B681B681A687B681B6842F415
:102EBC0000421A607B681B681A687B681B6822F4E6
:102ECC0000421A6001F032F8F8607B685B68814A56
:102EDC00934207D8FB68804A934294BF0123002396
:102EEC00DBB206E0FB687D4A934294BF01230023CA
:102EFC00DBB2002B01D00123E7E0FB68784AA2FB90
:102F0C0003239B0CBB607B681B685B6823F03F0151
:102F1C007B681B68BA680A435A607B681B681B6A2B
:102F2C0023F03F017B685B686A4A934202D8BB6816
:102F3C00013309E0BB684FF4967202FB03F3694A54
:102F4C00A2FB03239B0901337A6812680B431362BB
:102F5C007B681B68DB6923F44F4222F0FF027B681D
:102F6C005B685C498B4219D8FB68591E7B685B68AF
:102F7C005B00B1FBF3F3591C40F6FC730B40002BC8
:102F8C000AD0FB68591E7B685B685B00B1FBF3F3EE
:102F9C000133C3F30B0351E004234FE07B689B68C0
:102FAC00002B11D1FB68581E7B6859680B465B00DF
:102FBC000B44B0FBF3F30133C3F30B03002B0CBF37
:102FCC0001230023DBB212E0FB68581E7B685968B2
:102FDC000B469B000B4499000B44B0FBF3F30133FD
:102FEC00C3F30B03002B0CBF01230023DBB2002B1C
:102FFC0001D0012322E07B689B68002B0ED1FB687B
:10300C00581E7B6859680B465B000B44B0FBF3F30E
:10301C000133C3F30B0343F400430FE0FB68581E6A
:10302C007B6859680B469B000B4499000B44B0FB22
:10303C00F3F30133C3F30B0343F44043796809689A
:10304C001343CB617B681B681B6823F0C0017B6852
:10305C00DA697B681B6A1A437B681B680A431A602F
:10306C007B681B689B6823F4034323F0FF037A6897
:10307C0011697A68D26811437A6812680B439360BD
:10308C007B681B68DB6823F0FF017B685A697B68EF
:10309C009B691A437B681B680A43DA607B681B6870
:1030AC001A687B681B6842F001021A607B68002278
:1030BC001A647B68202283F83D207B6800221A6307
:1030CC007B68002283F83E20002318461037BD464B
:1030DC0080BD00BFA08601007F841E00FF083D005C
:1030EC0083DE1B43D34D621080B588B002AFF8600D
:1030FC007A601A460B467B8113463B81FFF7F6FA42
:10310C007861FB6893F83D30DBB2202B40F0E08017
:10311C007B690093192301227049F86800F064F967
:10312C000346002B01D00223D3E0FB6893F83C301C
:10313C00012B01D10223CCE0FB68012283F83C2057
:10314C00FB681B681B6803F00103012B07D0FB68AD
:10315C001B681A68FB681B6842F001021A60FB6866
:10316C001B681A68FB681B6822F400621A60FB6813
:10317C00212283F83D20FB68102283F83E20FB6857
:10318C0000221A64FB687A685A62FB683A895A858D
:10319C00FB685B8D9AB2FB681A85FB68504ADA6251
:1031AC0079897B693A6AF86800F09CF80346002B31
:1031BC0001D001238DE000233B61FB681B685B6938
:1031CC003B61FB681B689B693B613B6966E07A6904
:1031DC00396AF86800F022FA0346002B0DD0FB6820
:1031EC001B6C042B07D1FB681B681A68FB681B68F7
:1031FC0042F400721A6001236BE0FB685B6A1A7878
:10320C00FB681B681A61FB685B6A5A1CFB685A6294
:10321C00FB685B8D9BB2013B9AB2FB685A85FB68DD
:10322C001B8D013B9AB2FB681A85FB681B685B69B6
:10323C0003F00403042B1BD1FB681B8D002B17D050
:10324C00FB685B6A1A78FB681B681A61FB685B6A2F
:10325C005A1CFB685A62FB685B8D9BB2013B9AB2AD
:10326C00FB685A85FB681B8D013B9AB2FB681A857B
:10327C007A69396AF86800F019FA0346002B0DD008
:10328C00FB681B6C042B07D1FB681B681A68FB6876
:10329C001B6842F400721A6001231AE0FB681B8D54
:1032AC00002B94D1FB681B681A68FB681B6842F4FE
:1032BC0000721A60FB68202283F83D20FB68002214
:1032CC0083F83E20FB68002283F83C20002300E0BA
:1032DC00022318461837BD4680BD00BF02001000FF
:1032EC000000FFFF80B588B002AFF8607A603B60E9
:1032FC000B467B81FB68DB6A7B617B69082B06D004
:10330C007B69012B03D07B6913F5803F08D1FB68E7
:10331C001B681A68FB681B6842F480721A600BE029
:10332C00FB681B6B122B07D1FB681B681A68FB68C8
:10333C001B6842F480721A603B6800937B68002221
:10334C004FF00111F86800F04FF80346002B0DD038
:10335C00FB681B681B6803F48073B3F5807F03D193
:10336C00FB684FF400721A64032335E0FB681B6999
:10337C00B3F5804F08D17B89DBB21A46FB681B681A
:10338C0002F0FE021A611BE07B89DB11DBB203F059
:10339C000603DBB263F00F03DAB2FB681B681A6139
:1033AC003B687A680E49F86800F098F80346002BE1
:1033BC0001D0012310E07B89DAB2FB681B681A612B
:1033CC003B687A680749F86800F088F80346002BD8
:1033DC0001D0012300E0002318461837BD4680BDFC
:1033EC00080001000200010080B584B000AFF86055
:1033FC00B9603B601346FB7148E03B68B3F1FF3F9B
:10340C0044D0FFF773F90246BB69D31A3A689A4263
:10341C0002D33B68002B39D1BB681B0CDBB2012BF0
:10342C000DD1FB681B685B69DA43BB6813409BB228
:10343C00002B0CBF01230023DBB21A460CE0FB6807
:10344C001B689B69DA43BB6813409BB2002B0CBF13
:10345C0001230023DBB21A46FB799A4216D1FB6892
:10346C0000221A63FB68202283F83D20FB680022AF
:10347C0083F83E20FB681B6C43F02002FB681A6447
:10348C00FB68002283F83C20012323E0BB681B0C63
:10349C00DBB2012B0DD1FB681B685B69DA43BB689F
:1034AC0013409BB2002B0CBF01230023DBB21A4646
:1034BC000CE0FB681B689B69DA43BB6813409BB24A
:1034CC00002B0CBF01230023DBB21A46FB799A4276
:1034DC0093D0002318461037BD4680BD80B584B00C
:1034EC0000AFF860B9607A603B6071E0FB681B6804
:1034FC005B6903F48063B3F5806F23D1FB681B68B1
:10350C001A68FB681B6842F400721A60FB681B683F
:10351C006FF480625A61FB6800221A63FB682022F8
:10352C0083F83D20FB68002283F83E20FB681B6C6F
:10353C0043F00402FB681A64FB68002283F83C2009
:10354C00012367E07B68B3F1FF3F41D0FFF7CEF872
:10355C0002463B68D31A7A689A4202D37B68002BE6
:10356C0036D1BB681B0CDBB2012B0CD1FB681B6882
:10357C005B69DA43BB6813409BB2002B14BF012379
:10358C000023DBB20BE0FB681B689B69DA43BB686A
:10359C0013409BB2002B14BF01230023DBB2002B82
:1035AC0016D0FB6800221A63FB68202283F83D20AA
:1035BC00FB68002283F83E20FB681B6C43F0200262
:1035CC00FB681A64FB68002283F83C20012321E08D
:1035DC00BB681B0CDBB2012B0CD1FB681B685B6955
:1035EC00DA43BB6813409BB2002B14BF01230023AA
:1035FC00DBB20BE0FB681B689B69DA43BB681340CA
:10360C009BB2002B14BF01230023DBB2002B7FF4F1
:10361C006DAF002318461037BD4680BD80B584B011
:10362C0000AFF860B9607A6034E0F86800F086F8B2
:10363C000346002B01D0012334E0BB68B3F1FF3FFC
:10364C0028D0FFF753F802467B68D31ABA689A421F
:10365C0002D3BB68002B1DD1FB681B685B6903F0B0
:10366C008003802B16D0FB6800221A63FB68202293
:10367C0083F83D20FB68002283F83E20FB681B6C1E
:10368C0043F02002FB681A64FB68002283F83C209C
:10369C00012307E0FB681B685B6903F08003802B48
:1036AC00C3D1002318461037BD4680BD80B584B009
:1036BC0000AFF860B9607A6034E0F86800F03EF86A
:1036CC000346002B01D0012334E0BB68B3F1FF3F6C
:1036DC0028D0FFF70BF802467B68D31ABA689A42D7
:1036EC0002D3BB68002B1DD1FB681B685B6903F020
:1036FC000403042B16D0FB6800221A63FB682022FB
:10370C0083F83D20FB68002283F83E20FB681B6C8D
:10371C0043F02002FB681A64FB68002283F83C200B
:10372C00012307E0FB681B685B6903F00403042BAF
:10373C00C3D1002318461037BD4680BD80B483B07A
:10374C0000AF78607B681B685B6903F48063B3F53A
:10375C00806F1BD17B681B686FF480625A617B6839
:10376C0000221A637B68202283F83D207B680022AC
:10377C0083F83E207B681B6C43F004027B681A6460
:10378C007B68002283F83C20012300E000231846CC
:10379C000C37BD4680BC704780B586B000AF7860F2
:1037AC007B68002B01D1012372E27B681B6803F05C
:1037BC000103002B00F08780924B5B6803F00C0335
:1037CC00042B0CD08F4B5B6803F00C03082B12D12D
:1037DC008C4B5B6803F48033B3F5803F0BD1894B82
:1037EC001B6803F40033002B6CD07B685B68002BE8
:1037FC0068D101234CE27B685B68B3F5803F06D14E
:10380C00804B1B687F4A43F4803313602EE07B6847
:10381C005B68002B0CD17B4B1B687A4A23F48033FA
:10382C001360784B1B68774A23F4802313601DE0E8
:10383C007B685B68B3F5A02F0CD1724B1B68714A87
:10384C0043F4802313606F4B1B686E4A43F4803340
:10385C0013600BE06B4B1B686A4A23F480331360D4
:10386C00684B1B68674A23F4802313607B685B6892
:10387C00002B13D0FEF73AFF386108E0FEF736FF55
:10388C0002463B69D31A642B01D9032300E25D4B3A
:10389C001B6803F40033002BF0D014E0FEF726FF76
:1038AC00386108E0FEF722FF02463B69D31A642B0D
:1038BC0001D90323ECE1534B1B6803F40033002BB9
:1038CC00F0D100E000BF7B681B6803F00203002B03
:1038DC0063D04C4B5B6803F00C03002B0BD0494BB3
:1038EC005B6803F00C03082B1CD1464B5B6803F49C
:1038FC008033002B16D1434B1B6803F00203002BC3
:10390C0005D07B681B69012B01D00123C0E13D4B25
:10391C001B6823F0F8027B685B69DB0039491343B1
:10392C000B603AE07B681B69002B20D0364B0122E0
:10393C001A60FEF7DBFE386108E0FEF7D7FE0246A0
:10394C003B69D31A022B01D90323A1E12D4B1B6830
:10395C0003F00203002BF0D02A4B1B6823F0F80273
:10396C007B685B69DB00274913430B6015E0264B32
:10397C0000221A60FEF7BAFE386108E0FEF7B6FEC8
:10398C0002463B69D31A022B01D9032380E11D4B5C
:10399C001B6803F00203002BF0D17B681B6803F05B
:1039AC000803002B3AD07B689B69002B19D0174B6E
:1039BC0001221A60FEF79AFE386108E0FEF796FEC7
:1039CC0002463B69D31A022B01D9032360E10D4B4C
:1039DC005B6A03F00203002BF0D0012000F0CEFA5A
:1039EC001CE00A4B00221A60FEF780FE38610FE0E3
:1039FC00FEF77CFE02463B69D31A022B08D903233F
:103A0C0046E100BF001002400000424280044242E6
:103A1C00924B5B6A03F00203002BE9D17B681B68B5
:103A2C0003F00403002B00F0A6800023FB758B4BE6
:103A3C00DB6903F08053002B0DD1884BDB69874A7F
:103A4C0043F08053D361854BDB6903F08053BB603B
:103A5C00BB680123FB75824B1B6803F48073002B3E
:103A6C0018D17F4B1B687E4A43F480731360FEF7BA
:103A7C003DFE386108E0FEF739FE02463B69D31A79
:103A8C00642B01D9032303E1754B1B6803F480738A
:103A9C00002BF0D07B68DB68012B06D16F4B1B6AC7
:103AAC006E4A43F0010313622DE07B68DB68002B48
:103ABC000CD16A4B1B6A694A23F001031362674BF2
:103ACC001B6A664A23F0040313621CE07B68DB6804
:103ADC00052B0CD1614B1B6A604A43F00403136243
:103AEC005E4B1B6A5D4A43F0010313620BE05B4BB8
:103AFC001B6A5A4A23F001031362584B1B6A574A3C
:103B0C0023F0040313627B68DB68002B15D0FEF7EF
:103B1C00EDFD38610AE0FEF7E9FD02463B69D31A78
:103B2C0041F28832934201D90323B1E04B4B1B6A1B
:103B3C0003F00203002BEED014E0FEF7D7FD386142
:103B4C000AE0FEF7D3FD02463B69D31A41F28832F4
:103B5C00934201D903239BE0404B1B6A03F0020301
:103B6C00002BEED1FB7D012B05D13C4BDB693B4A95
:103B7C0023F08053D3617B68DB69002B00F08780D6
:103B8C00364B5B6803F00C03082B61D07B68DB6958
:103B9C00022B46D1334B00221A60FEF7A7FD386189
:103BAC0008E0FEF7A3FD02463B69D31A022B01D9AC
:103BBC0003236DE0294B1B6803F00073002BF0D13D
:103BCC007B681B6AB3F5803F08D1244B5B6823F4F8
:103BDC0000327B689B68214913434B601F4B5B6829
:103BEC0023F474127B68196A7B685B6A0B431B496C
:103BFC0013434B601B4B01221A60FEF777FD3861B3
:103C0C0008E0FEF773FD02463B69D31A022B01D97B
:103C1C0003233DE0114B1B6803F00073002BF0D025
:103C2C0035E0104B00221A60FEF760FD386108E0A9
:103C3C00FEF75CFD02463B69D31A022B01D9032324
:103C4C0026E0064B1B6803F00073002BF0D11EE03E
:103C5C007B68DB69012B07D1012319E000100240BE
:103C6C0000700040600042420B4B5B68FB60FB68DD
:103C7C0003F480327B681B6A9A4206D1FB6803F41A
:103C8C0070127B685B6A9A4201D0012300E000232A
:103C9C0018461837BD4680BD0010024080B584B070
:103CAC0000AF786039607B68002B01D10123D0E034
:103CBC006A4B1B6803F007033A689A4210D9674BAA
:103CCC001B6823F0070265493B6813430B60634B89
:103CDC001B6803F007033A689A4201D00123B8E04D
:103CEC007B681B6803F00203002B20D07B681B68E9
:103CFC0003F00403002B05D0594B5B68584A43F47E
:103D0C00E06353607B681B6803F00803002B05D04D
:103D1C00534B5B68524A43F460535360504B5B689F
:103D2C0023F0F0027B689B684D4913434B607B6822
:103D3C001B6803F00103002B40D07B685B68012BF0
:103D4C0007D1474B1B6803F40033002B15D101231B
:103D5C007FE07B685B68022B07D1414B1B6803F04B
:103D6C000073002B09D1012373E03D4B1B6803F05A
:103D7C000203002B01D101236BE0394B5B6823F06C
:103D8C0003027B685B68364913434B60FEF7AEFC5D
:103D9C00F8600AE0FEF7AAFC0246FB68D31A41F26F
:103DAC008832934201D9032353E02D4B5B6803F017
:103DBC000C027B685B689B009A42EBD1274B1B681B
:103DCC0003F007033A689A4210D2244B1B6823F085
:103DDC00070222493B6813430B60204B1B6803F01E
:103DEC0007033A689A4201D0012332E07B681B68D2
:103DFC0003F00403002B08D0194B5B6823F4E0623A
:103E0C007B68DB68164913434B607B681B6803F0C7
:103E1C000803002B09D0124B5B6823F460527B68BB
:103E2C001B69DB000E4913434B6000F021F802467E
:103E3C000B4B5B681B0903F00F030A49CB5C22FA9E
:103E4C0003F3094A1360094B1B681846FEF70CFC78
:103E5C00002318461037BD4680BD00BF002002402D
:103E6C0000100240DC5F00085400002058000020C5
:103E7C0080B487B000AF0023FB600023BB6000233D
:103E8C007B6100237B6000233B611E4B5B68FB6006
:103E9C00FB6803F00C03042B02D0082B03D027E0A3
:103EAC00194B3B6127E0FB689B0C03F00F03174A8F
:103EBC00D35C7B60FB6803F48033002B10D0114B78
:103ECC005B685B0C03F00103114AD35CBB607B683D
:103EDC000D4A03FB02F2BB68B2FBF3F37B6104E017
:103EEC007B680C4A02FB03F37B617B693B6102E05C
:103EFC00054B3B6100BF3B6918461C37BD4680BC77
:103F0C00704700BF0010024000127A00F45F0008F6
:103F1C000460000800093D0080B400AF024B1B6830
:103F2C001846BD4680BC70475400002080B500AFD9
:103F3C00FFF7F2FF0246054B5B681B0A03F0070311
:103F4C000349CB5C22FA03F3184680BD00100240F3
:103F5C00EC5F000880B500AFFFF7DEFF0246054BB3
:103F6C005B68DB0A03F007030349CB5C22FA03F31B
:103F7C00184680BD00100240EC5F000880B485B08C
:103F8C0000AF78600A4B1B680A4AA2FB03235B0A4A
:103F9C007A6802FB03F3FB6000BFFB685A1EFA60F1
:103FAC00002BF9D100BF00BF1437BD4680BC704751
:103FBC0054000020D34D621080B582B000AF786001
:103FCC007B68002B01D1012376E07B685B6A002BB8
:103FDC0008D17B685B68B3F5827F09D07B680022CF
:103FEC00DA6105E07B6800221A617B6800225A6165
:103FFC007B6800229A627B6893F85130DBB2002B0D
:10400C0006D17B68002283F850207868FEF714F9FB
:10401C007B68022283F851207B681B681A687B68D6
:10402C001B6822F040021A607B685B6803F48272A2
:10403C007B689B6803F404431A437B68DB6803F4D6
:10404C0000631A437B681B6903F002031A437B6805
:10405C005B6903F001031A437B689B6903F40073EB
:10406C001A437B68DB6903F038031A437B681B6ACD
:10407C0003F0800342EA03017B689B6A03F400525D
:10408C007B681B680A431A607B689B691A0C7B6807
:10409C001B6802F004025A607B681B68DA697B6853
:1040AC001B6822F40062DA617B6800225A657B6827
:1040BC00012283F85120002318460837BD4680BDE5
:1040CC0080B58CB000AFF860B9607A607B8001235A
:1040DC00FB62002387F82B30FB6893F85030012BE0
:1040EC0001D1022398E1FB68012283F85020FEF7EE
:1040FC00FDFA7862FB6893F8513087F82330FB683F
:10410C005B68FB617B887B8397F82330012B0FD096
:10411C00FB69B3F5827F07D1FB689B68002B03D149
:10412C0097F82330042B03D0022387F82B306DE152
:10413C00BB68002B05D07B68002B02D07B88002B42
:10414C0003D1012387F82B3060E1FB6893F85130E1
:10415C00DBB2042B03D0FB68052283F85120FB68EB
:10416C0000225A65FB687A689A63FB687A88DA875A
:10417C00FB687A889A87FB68BA681A63FB687A8846
:10418C00DA86FB687A889A86FB6800221A64FB68D8
:10419C0000225A64FB681B681B6803F04003402B29
:1041AC0007D0FB681B681A68FB681B6842F040026A
:1041BC001A60FB68DB68B3F5006F7CD1FB685B6849
:1041CC00002B02D07B8B012B6AD1FB681B6B1A88EE
:1041DC00FB681B68DA60FB681B6B9A1CFB681A6334
:1041EC00FB68DB8E9BB2013B9AB2FB68DA8657E028
:1041FC00FB681B689B6803F00203022B1BD1FB6856
:10420C00DB8E9BB2002B16D0FB6A012B13D1FB6803
:10421C001B6B1A88FB681B68DA60FB681B6B9A1CAB
:10422C00FB681A63FB68DB8E9BB2013B9AB2FB689E
:10423C00DA860023FB62FB681B689B6803F00103B2
:10424C00012B19D1FB68DB8F9BB2002B14D0FB68C0
:10425C001B68DA68FB689B6B92B21A80FB689B6BDD
:10426C009A1CFB689A63FB68DB8F9BB2013B9AB28A
:10427C00FB68DA870123FB62FEF738FA02467B6A99
:10428C00D31ABA6B9A420BD8BB6BB3F1FF3F07D072
:10429C00032387F82B30FB68012283F85120B5E00B
:1042AC00FB68DB8E9BB2002BA2D1FB68DB8F9BB231
:1042BC00002B9DD180E0FB685B68002B02D07B8BD0
:1042CC00012B6FD1FB681A6BFB681B680C331278DF
:1042DC001A70FB681B6B5A1CFB681A63FB68DB8E3D
:1042EC009BB2013B9AB2FB68DA865BE0FB681B6809
:1042FC009B6803F00203022B1CD1FB68DB8E9BB284
:10430C00002B17D0FB6A012B14D1FB681A6BFB68CE
:10431C001B680C3312781A70FB681B6B5A1CFB68F9
:10432C001A63FB68DB8E9BB2013B9AB2FB68DA86A0
:10433C000023FB62FB681B689B6803F00103012BE5
:10434C0019D1FB68DB8F9BB2002B14D0FB681B6868
:10435C00DA68FB689B6BD2B21A70FB689B6B5A1CB9
:10436C00FB689A63FB68DB8F9BB2013B9AB2FB68DC
:10437C00DA870123FB62FEF7B9F902467B6AD31A8E
:10438C00BA6B9A4203D8BB6BB3F1FF3F02D1BB6B44
:10439C00002B07D1032387F82B30FB68012283F80D
:1043AC00512033E0FB68DB8E9BB2002B9ED1FB6867
:1043BC00DB8F9BB2002B99D17A6AB96BF86800F04D
:1043CC00B7F80346002B06D0012387F82B30FB6887
:1043DC0020225A651AE0FB689B68002B0AD1002347
:1043EC007B61FB681B68DB687B61FB681B689B68F7
:1043FC007B617B69FB685B6D002B03D0012387F825
:10440C002B3003E0FB68012283F85120FB6800226B
:10441C0083F8502097F82B3018463037BD4680BDB6
:10442C0080B588B000AFF860B9603B601346FB7193
:10443C00FEF75CF90246BB6A9B1A3A681344FB61AF
:10444C00FEF754F9B861394B1B685B011B0DFA6917
:10445C0002FB03F37B6154E03B68B3F1FF3F50D0A8
:10446C00FEF744F90246BB69D31AFA699A4202D99B
:10447C00FB69002B3DD1FB681B685A68FB681B6805
:10448C0022F0E0025A60FB685B68B3F5827F11D1C1
:10449C00FB689B68B3F5004F04D0FB689B68B3F5D1
:1044AC00806F07D1FB681B681A68FB681B6822F0D9
:1044BC0040021A60FB689B6AB3F5005F0FD1FB6882
:1044CC001B681A68FB681B6822F400521A60FB68B0
:1044DC001B681A68FB681B6842F400521A60FB6880
:1044EC00012283F85120FB68002283F8502003231B
:1044FC0017E07B69002B01D10023FB617B69013B39
:10450C007B61FB681B689A68BB681340BA689A4267
:10451C000CBF01230023DBB21A46FB799A429BD1D4
:10452C00002318462037BD4680BD00BF5400002034
:10453C0080B586B002AFF860B9607A607B68009392
:10454C00BB6800228021F868FFF76AFF0346002B46
:10455C0007D0FB685B6D43F02002FB685A650323B0
:10456C0000E0002318461037BD4680BD80B582B0F0
:10457C0000AF78607B68002B01D1012342E07B689F
:10458C0093F84130DBB2002B06D17B68002283F814
:10459C0040207868FDF798FF7B68242283F841203F
:1045AC007B681B68DA687B681B6822F40052DA604F
:1045BC00786800F0C5FD7B681B681A697B681B680E
:1045CC0022F490421A617B681B685A697B681B68ED
:1045DC0022F02A025A617B681B68DA687B681B68C8
:1045EC0042F40052DA607B6800225A647B68202215
:1045FC0083F841207B68202283F842207B680022CC
:10460C005A63002318460837BD4680BD80B58AB072
:10461C0002AFF860B9603B601346FB8000237B61FE
:10462C00FB6893F84130DBB2202B6DD1BB68002BBB
:10463C0002D0FB88002B01D1012366E0FB6800222D
:10464C005A64FB68212283F84120FEF74FF8786109
:10465C00FB68FA889A84FB68FA88DA84FB689B68A2
:10466C00B3F5805F08D1FB681B69002B04D10023D4
:10467C00FB61BB68BB6103E0BB68FB610023BB61F2
:10468C002AE03B6800937B6900228021F86800F0E7
:10469C0014FB0346002B01D0032336E0FB69002BEF
:1046AC000BD1BB691B881A46FB681B68C2F3080256
:1046BC005A60BB690233BB6107E0FB691A78FB687F
:1046CC001B685A60FB690133FB61FB68DB8C9BB296
:1046DC00013B9AB2FB68DA84FB68DB8C9BB2002B43
:1046EC00CFD13B6800937B6900224021F86800F031
:1046FC00E4FA0346002B01D0032306E0FB682022DA
:10470C0083F84120002300E0022318462037BD46E1
:10471C0080BD80B584B000AFF860B9601346FB80F3
:10472C00FB6893F84230DBB2202B12D1BB68002B14
:10473C0002D0FB88002B01D101230BE0FB68002287
:10474C001A63FB881A46B968F86800F024FB034624
:10475C0000E0022318461037BD4680BD80B5BAB0C4
:10476C0000AF78607B681B681B68C7F8E4307B6817
:10477C001B68DB68C7F8E0307B681B685B69C7F8AF
:10478C00DC300023C7F8D8300023C7F8D430D7F872
:10479C00E43003F00F03C7F8D830D7F8D830002B2B
:1047AC000FD1D7F8E43003F02003002B09D0D7F851
:1047BC00E03003F02003002B03D0786800F001FCFC
:1047CC005BE2D7F8D830002B00F0DE80D7F8DC3075
:1047DC0003F00103002B06D1D7F8E03003F49073FB
:1047EC00002B00F0D180D7F8E43003F00103002B4C
:1047FC000BD0D7F8E03003F48073002B05D07B6826
:10480C005B6C43F001027B685A64D7F8E43003F028
:10481C000403002B0BD0D7F8DC3003F00103002B82
:10482C0005D07B685B6C43F002027B685A64D7F856
:10483C00E43003F00203002B0BD0D7F8DC3003F08C
:10484C000103002B05D07B685B6C43F004027B6892
:10485C005A64D7F8E43003F00803002B11D0D7F8D2
:10486C00E03003F02003002B05D1D7F8DC3003F047
:10487C000103002B05D07B685B6C43F008027B685E
:10488C005A647B685B6C002B00F0F281D7F8E43043
:10489C0003F02003002B08D0D7F8E03003F02003FE
:1048AC00002B02D0786800F08CFB7B681B685B697E
:1048BC0003F04003002B14BF01230023DBB2C7F825
:1048CC00D4307B685B6C03F00803002B03D1D7F862
:1048DC00D430002B4FD0786800F096FA7B681B68B8
:1048EC005B6903F04003002B41D07B681B681433D9
:1048FC00C7F89C30D7F89C3053E8003FC7F8983085
:10490C00D7F8983023F04003C7F8D0307B681B6889
:10491C001433D7F8D020C7F8A820C7F8A430D7F89C
:10492C00A410D7F8A82041E80023C7F8A030D7F886
:10493C00A030002BD9D17B68DB6B002B13D07B68AC
:10494C00DB6B7E4A5A637B68DB6B1846FEF744F8D8
:10495C000346002B16D07B68DB6B5B6B7A68D26BE3
:10496C00104698470EE0786800F093F90AE07868F2
:10497C0000F08FF906E0786800F08BF97B68002274
:10498C005A6475E100BF73E17B681B6B012B40F02F
:10499C004F81D7F8E43003F01003002B00F048816E
:1049AC00D7F8E03003F01003002B00F04181002316
:1049BC00BB607B681B681B68BB607B681B685B68A3
:1049CC00BB60BB687B681B685B6903F04003002B12
:1049DC0000F0B6807B68DB6B1B685B68A7F8BE30A9
:1049EC00B7F8BE30002B00F045817B689B8DB7F883
:1049FC00BE209A4280F03E817B68B7F8BE20DA85F3
:104A0C007B68DB6B9B69202B00F088807B681B68C4
:104A1C000C33C7F88830D7F8883053E8003FC7F814
:104A2C008430D7F8843023F48073C7F8B8307B68AF
:104A3C001B680C33D7F8B820C7F89420C7F890300F
:104A4C00D7F89010D7F8942041E80023C7F88C30A1
:104A5C00D7F88C30002BD9D17B681B6814337B675B
:104A6C007B6F53E8003F3B673B6F23F00103C7F8B4
:104A7C00B4307B681B681433D7F8B420C7F8802097
:104A8C00FB67F96FD7F8802041E80023BB67BB6F49
:104A9C00002BE1D17B681B6814333B663B6E53E8FB
:104AAC00003FFB65FB6D23F04003C7F8B0307B681B
:104ABC001B681433D7F8B020FA66BB66B96EFA6E71
:104ACC0041E800237B667B6E002BE3D17B682022C0
:104ADC0083F842207B6800221A637B681B680C33C6
:104AEC00FB64FB6C53E8003FBB64BB6C23F010030E
:104AFC00C7F8AC307B681B680C33D7F8AC20BA65B0
:104B0C007B65796DBA6D41E800233B653B6D002BED
:104B1C00E3D17B68DB6B1846FDF723FF7B68022231
:104B2C005A637B689A8D7B68DB8D9BB2D31A9BB2E0
:104B3C001946786800F0B6F89CE000BFD94E000822
:104B4C007B689A8D7B68DB8D9BB2D31AA7F8CE302D
:104B5C007B68DB8D9BB2002B00F08E80B7F8CE30DB
:104B6C00002B00F089807B681B680C33BB63BB6B2C
:104B7C0053E8003F7B637B6B23F49073C7F8C8301A
:104B8C007B681B680C33D7F8C8207A643B64396C9B
:104B9C007A6C41E80023FB63FB6B002BE3D17B6851
:104BAC001B6814337B627B6A53E8003F3B623B6AB1
:104BBC0023F00103C7F8C4307B681B681433D7F8A3
:104BCC00C4203A63FB62F96A3A6B41E80023BB628A
:104BDC00BB6A002BE3D17B68202283F842207B68E0
:104BEC0000221A637B681B680C333B613B6953E8FA
:104BFC00003FFB60FB6823F01003C7F8C0307B68F4
:104C0C001B680C33D7F8C020FA61BB61B969FA692B
:104C1C0041E800237B617B69002BE3D17B68022296
:104C2C005A63B7F8CE301946786800F03BF823E0A9
:104C3C00D7F8E43003F08003002B09D0D7F8E0302C
:104C4C0003F08003002B03D0786800F053F914E0D4
:104C5C00D7F8E43003F04003002B0ED0D7F8E03047
:104C6C0003F04003002B08D0786800F092F904E0C0
:104C7C0000BF02E000BF00E000BFE837BD4680BDCA
:104C8C0080B483B000AF786000BF0C37BD4680BCE9
:104C9C00704780B483B000AF786000BF0C37BD465E
:104CAC0080BC704780B483B000AF78600B467B80CB
:104CBC0000BF0C37BD4680BC704780B590B000AFCC
:104CCC00F860B9603B601346FB7150E0BB6CB3F10C
:104CDC00FF3F4CD0BB6C002B07D0FDF707FD024605
:104CEC003B68D31ABA6C9A4241D2FB681B680C33EE
:104CFC00BB62BB6A53E8003F7B627B6A23F4D073D0
:104D0C00FB63FB681B680C33FA6B7A633B63396B90
:104D1C007A6B41E80023FB62FB6A002BE5D1FB6850
:104D2C001B6814337B617B6953E8003F3B613B6933
:104D3C0023F00103BB63FB681B681433BA6B3A6244
:104D4C00FB61F9693A6A41E80023BB61BB69002B3E
:104D5C00E5D1FB68202283F84120FB68202283F8F0
:104D6C004220FB68002283F8402003230FE0FB68FD
:104D7C001B681A68BB681340BA689A420CBF0123BF
:104D8C000023DBB21A46FB799A429FD000231846C7
:104D9C004037BD4680BD80B485B000AFF860B960C7
:104DAC001346FB80FB68BA689A62FB68FA889A859E
:104DBC00FB68FA88DA85FB6800225A64FB682222B9
:104DCC0083F84220FB681B69002B07D0FB681B682B
:104DDC00DA68FB681B6842F48072DA60FB681B6857
:104DEC005A69FB681B6842F001025A61FB681B6838
:104DFC00DA68FB681B6842F02002DA600023184670
:104E0C001437BD4680BC704780B495B000AF786055
:104E1C007B681B680C337B637B6B53E8003F3B6305
:104E2C003B6B23F49073FB647B681B680C33FA6C4C
:104E3C003A64FB63F96B3A6C41E80023BB63BB6BD0
:104E4C00002BE5D17B681B6814333B623B6A53E84B
:104E5C00003FFB61FB6923F00103BB647B681B68AB
:104E6C001433BA6CFA62BB62B96AFA6A41E800237D
:104E7C007B627B6A002BE5D17B681B6B012B19D104
:104E8C007B681B680C33FB60FB6853E8003FBB601E
:104E9C00BB6823F010037B647B681B680C337A6C53
:104EAC00BA617B617969BA6941E800233B613B696E
:104EBC00002BE5D17B68202283F842207B680022FE
:104ECC001A6300BF5437BD4680BC704780B584B0B0
:104EDC0000AF78607B685B6AFB60FB680022DA8558
:104EEC00FB680022DA84F868FFF7D3FE00BF1037A6
:104EFC00BD4680BD80B485B000AF78607B6893F808
:104F0C004130DBB2212B3ED17B689B68B3F5805FCF
:104F1C0014D17B681B69002B10D17B681B6AFB606A
:104F2C00FB681B881A467B681B68C2F308025A6030
:104F3C007B681B6A9A1C7B681A6208E07B681B6A98
:104F4C00591C7A6811621A787B681B685A607B68F6
:104F5C00DB8C9BB2013B9BB27A681946D184002B47
:104F6C000FD17B681B68DA687B681B6822F08002B3
:104F7C00DA607B681B68DA687B681B6842F0400269
:104F8C00DA60002300E0022318461437BD4680BCCB
:104F9C00704780B582B000AF78607B681B68DA68B8
:104FAC007B681B6822F04002DA607B68202283F861
:104FBC0041207868FFF764FE002318460837BD4689
:104FCC0080BD80B58CB000AF78607B6893F84230C0
:104FDC00DBB2222B40F0AE807B689B68B3F5805F20
:104FEC0017D17B681B69002B13D10023FB627B68F4
:104FFC009B6ABB627B681B685B689BB2C3F308034C
:10500C009AB2BB6A1A807B689B6A9A1C7B689A620C
:10501C0026E07B689B6AFB620023BB627B689B6813
:10502C00B3F5805F07D07B689B68002B0AD17B6847
:10503C001B69002B06D17B681B685B68DAB2FB6AC4
:10504C001A7008E07B681B685B68DBB203F07F03B7
:10505C00DAB2FB6A1A707B689B6A5A1C7B689A628C
:10506C007B68DB8D9BB2013B9BB27A681946D1857C
:10507C00002B5DD17B681B68DA687B681B6822F0AB
:10508C002002DA607B681B68DA687B681B6822F494
:10509C008072DA607B681B685A697B681B6822F037
:1050AC0001025A617B68202283F842207B6800222F
:1050BC005A637B681B6B012B35D17B6800221A630A
:1050CC007B681B680C337B617B6953E8003F3B6159
:1050DC003B6923F010037B627B681B680C337A6A94
:1050EC003A62FB61F9693A6A41E80023BB61BB692A
:1050FC00002BE5D17B681B681B6803F01003102B99
:10510C000AD10023FB607B681B681B68FB607B6813
:10511C001B685B68FB60FB687B689B8D1946786835
:10512C00FFF7C0FD02E07868FBF746FC002302E0C5
:10513C00002300E0022318463037BD4680BD000036
:10514C0080B584B000AF78607B681B681B6923F462
:10515C0040517B68DA687B681B680A431A617B687C
:10516C009A687B681B691A437B685B691343BB6055
:10517C007B681B68DB6823F4B05323F00C037A685C
:10518C001268B9680B43D3607B681B685B6923F4B6
:10519C0040717B689A697B681B680A435A617B681B
:1051AC001B682C4A934203D1FEF7D4FEF86002E050
:1051BC00FEF7BCFEF860FA6813469B0013449A0095
:1051CC001A447B685B689B00B2FBF3F3224AA2FB98
:1051DC0003235B091901FA6813469B0013449A00D8
:1051EC001A447B685B689B00B2FBF3F21A4BA3FB7F
:1051FC0002035B09642000FB03F3D31A1B01323357
:10520C00154AA2FB03235B0903F0F0031944FA6867
:10521C0013469B0013449A001A447B685B689B00FE
:10522C00B2FBF3F20C4BA3FB02035B09642000FB03
:10523C0003F3D31A1B013233074AA2FB03235B0986
:10524C0003F00F027B681B680A449A6000BF10379A
:10525C00BD4680BD003801401F85EB51014B1868DD
:10526C00704700BF6000002070B500260C4D0D4C3F
:10527C00641BA410A64209D100F0FAFC00260A4DCA
:10528C000A4C641BA410A64205D170BD55F8043B12
:10529C0098470136EEE755F8043B98470136F2E79C
:1052AC003C6000083C6000083C600008406000085E
:1052BC000A44914200F1FF3300D1704710B511F848
:1052CC00014B914203F8014FF9D110BD0346024442
:1052DC00934200D1704703F8011BF9E70EB46FF04D
:1052EC00004100B59CB01DAB029006900791049153
:1052FC000848094953F8042B0591006802A9019349
:10530C0000F0C6F80022029B1A701CB05DF804EB8A
:10531C0003B07047600000200802FFFF024610B582
:10532C00147813460132002CFAD1013B11F8012BF1
:10533C0003F8012F002AF9D110BD0A7870B56AB9AB
:10534C0070BD9A4209D10C46054614F8013F002B5A
:10535C00F6D015F8016F9E42F7D001300378002B80
:10536C00EFD11846ECE730B51446002C05461A462A
:10537C009BB005DA8B2303604FF0FF301BB030BDC0
:10538C004FF40273ADF80C300CBF234604F1FF331D
:10539C00029305934FF6FF7300910491ADF80E3014
:1053AC0069461E9B00F074F8431CBCBF8B232B601A
:1053BC00002CE3D00022009B1A70DFE707B50093A6
:1053CC0013460A46014603480068FFF7CCFF03B0BA
:1053DC005DF804FB600000202DE9F0478E688246E2
:1053EC009E420C4690461F4638D88A8912F4906F1C
:1053FC0032D0256809690133A5EB010965694B4475
:10540C0005EB450505EBD5756D109D4238BF1D4666
:10541C00530531D5294600F061FB064650B90C23E3
:10542C004FF0FF30CAF80030A38943F04003A3814A
:10543C00BDE8F0874A462169FFF73AFFA38923F4B8
:10544C00906343F08003A38126614E4426603E4660
:10545C006561A5EB0905A560BE4200D93E46324602
:10546C004146206800F0B8FAA36800209B1BA3609B
:10547C00236833442360DBE72A4600F0A3FB06468F
:10548C000028E1D15046216900F0C0FAC7E70000BE
:10549C002DE9F04F98468B8907461B060D4614469E
:1054AC009DB00ED50B6963B9402100F017FB286045
:1054BC00286120B90C233B604FF0FF30D1E0402332
:1054CC006B610023099320238DF8293030234FF092
:1054DC000109CDF80C80DFF8A4818DF82A30234621
:1054EC009A4613F8012B0AB1252AF9D1BAEB040B11
:1054FC000BD05B46224629463846FFF76DFF01303C
:10550C0000F0AA80099A5A4409929AF80030002BAC
:10551C0000F0A28000234FF0FF32CDE905230AF101
:10552C00010A049307938DF853301A9354460522BD
:10553C0014F8011B514800F041FA049AD8B9D0066E
:10554C0044BF20238DF85330110744BF2B238DF813
:10555C0053309AF800302A2B15D0544600204FF0C7
:10556C000A0C079A214611F8013B303B092B4ED906
:10557C00B0B1079214E0A0EB080309FA03F313434C
:10558C00A2460493D2E7039B191D1B680391002BC1
:10559C00BBBF5B4242F0020207930793B8BF049271
:1055AC0023782E2B0CD163782A2B35D1039B023414
:1055BC001A1D1B680392002BB8BF4FF0FF330593E5
:1055CC00DFF8BCA003225046217800F0F7F940B177
:1055DC004023A0EB0A0003FA00F0049B01340343C0
:1055EC00049314F8011B062226488DF8281000F0AD
:1055FC00E5F9002838D0244B1BBB039B073323F061
:10560C00070308330393099B3344099367E70C465C
:10561C0001200CFB0232A5E700234FF00A0C1946BF
:10562C0001340593204610F8012B303A092A03D98E
:10563C00002BC5D00591C3E7044601230CFB0121C7
:10564C00F0E703AB00932A463846104B04A9AFF39E
:10565C000080421C0646D6D1AB895B063FF52CAFC9
:10566C0009981DB0BDE8F08F03AB00932A4638466D
:10567C00064B04A900F07CF8EBE700BF06600008BD
:10568C000C6000081060000800000000E5530008E2
:10569C002DE9F047164699468A680B6907469342EE
:1056AC00B8BF1346336091F843200C46DDF82080D8
:1056BC000AB1013333602368990642BF3368023361
:1056CC003360256815F0060506D104F1190AE36864
:1056DC0032689B1AAB4228DC94F84320131E2268D4
:1056EC0018BF012392062DD44946384604F14302D3
:1056FC00C047013020D02368E56803F00603042B73
:10570C0018BF002532684FF00006A36808BFAD1A19
:10571C00226908BF25EAE5759342C4BF9B1AED18B0
:10572C001A34B5421AD1002008E0012352464946EA
:10573C003846C047013003D14FF0FF30BDE8F08749
:10574C000135C4E73020E11881F843005A1C94F865
:10575C0045102244023382F84310C5E70123224648
:10576C0049463846C0470130E6D00136D9E700003B
:10577C002DE9FF470F7E9146782F80460C469A46BE
:10578C000C9D01F1430207D8622F0AD8002F00F0BC
:10579C00D980582F00F0A48004F1420584F842709F
:1057AC003AE0A7F16303152BF6D801A151F823F0C9
:1057BC001558000829580008A5570008A5570008D7
:1057CC00A5570008A557000829580008A557000838
:1057DC00A5570008A5570008A55700083759000819
:1057EC005958000819590008A5570008A557000872
:1057FC0059590008A557000859580008A557000822
:10580C00A5570008215900082B681A1D1B682A602F
:10581C0004F1420584F842300123A4E02068296891
:10582C00060601F104030AD50E682B60002E03DA7C
:10583C002D23764284F843300A235E4819E00E6823
:10584C0010F0400F2B6018BF36B2EFE72B682068C2
:10585C00191D2960010601D51E6802E04606FBD51C
:10586C001E886F2F0CBF08230A235248002184F88E
:10587C0043106568002DA8BF2168A560A4BF21F066
:10588C00040121600EB9002D4DD01546B6FBF3F185
:10589C0003FB1167C75D05F8017D3746BB420E4619
:1058AC00F4D9082B0BD12368DE0708D5236961686E
:1058BC009942DEBF302305F8013C05F1FF35521B40
:1058CC0022614B4621464046CDF800A003AAFFF7C3
:1058DC00DFFE01304CD14FF0FF3004B0BDE8F08753
:1058EC00344881F845702968236851F8046B2960A5
:1058FC001D0614D5DF0744BF43F0200323601EB9F7
:10590C00236823F0200323601023AFE7236843F0C0
:10591C00200323607823284884F84530E3E75906B0
:10592C0048BFB6B2E6E71546BBE72B682668181DDC
:10593C006169286035061B6801D5196002E07006A4
:10594C00FBD51980002315462361BAE72B6800218B
:10595C001A1D2A601D686268284600F02FF808B1ED
:10596C00401B606063682361002384F84330A8E720
:10597C002A46494640462369D0470130ABD02368BC
:10598C009B0713D4E068039B9842B8BF1846A4E762
:10599C000123324649464046D04701309BD0013561
:1059AC00E36803995B1AAB42F2DCEBE7002504F1E8
:1059BC001906F5E71760000828600008034610B5C3
:1059CC00C9B202449342184601D1002003E0047886
:1059DC0001338C42F6D110BD884210B501EB0204A4
:1059EC0002D98442234607D8431EA14208D011F89D
:1059FC00012B03F8012FF8E7014602448A4200D13B
:105A0C0010BD13F8014D02F8014DF7E738B5054606
:105A1C00002940D051F8043C0C1F002BB8BFE418EF
:105A2C0000F010F91C4A136833B9636014602846FF
:105A3C00BDE8384000F00CB9A34208D92068211801
:105A4C008B4201BF19685B6809182160EDE71A46A3
:105A5C005B680BB1A342FAD911685018A0420BD164
:105A6C0020680144501883421160E0D118685B68CB
:105A7C00014411605360DAE702D90C232B60D6E79E
:105A8C00206821188B4201BF19685B6809182160D6
:105A9C0063605460CBE738BD1404002070B50E4E23
:105AAC000C463168054611B900F0BCF8306021464F
:105ABC00284600F0B7F8431C0AD0C41C24F0030499
:105ACC00A04207D0211A284600F0ACF8013001D1D1
